:100000000C9434000C943E000C943E000C943E0082
:100010000C943E000C943E000C943E000C943E0068
:100020000C943E000C943E000C943E000C943E0058
:100030000C943E000C943E000C943E000C943E0048
:100040000C943E000C943E000C943E000C943E0038
:100050000C943E000C943E000C943E000C943E0028
:100060000C943E000C943E0011241FBECFEFD8E04C
:10007000DEBFCDBF0E9440000C9453000C940000E2
:100080000E944300FFCF84B18C6384B98CB5816535
:100090008CBD2A9A08952A988EBD0DB407FEFDCF17
:0A00A0002A9A8EB50895F894FFCF58
:00000001FF
